:020000040000fa
:100000000200de021003000000000002100b0000de
:10001000000000021013000000000002101b00008e
:10002000000000021023000000000002102b00005e
:10003000000000021033000000000002103b00002e
:10004000000000021043000000000002104b0000fe
:10005000000000021053000000000002105b0000ce
:10006000000000021063000000000002106b00009e
:10007000000000021073000000000002107b00006e
:10008000000000021083000000000002108b00003e
:10009000000000020a731200f0b900030200d8e465
:1000a000900002781b79028002f0a3d8fcd9fa9064
:1000b000011caa82ab839000f6780f79018015e4c9
:1000c00093a3ac82ad838a828b83f0a3aa82ab8395
:1000d0008c828d83d8e9d9e712049a120a9275d0de
:1000e0000075813f75188075931e5392fe0200962d
:1000f00079015392fe22001000100000f800ffff6b
:1001000000100000e4936670130874019366700c8d
:1001100008740293667005087403936622c3e09620
:1001200008a3e09608a3e09608a3e09622c3e49310
:100130009608740193960874029396087403939634
:10014000226016080808c6c313c618c613c618c608
:1001500013c618c613c6d5e0ea22e026f008a3e0cd
:1001600036f008a3e036f008a3e036f022e056f6b9
:1001700008a3e056f608a3e056f608a3e056f622d8
:10018000e0f608a3e0f608a3e0f608a3e0f622c92b
:10019000c0e0e7f20809e7f20809e7f20809e7f228
:1001a000d0e0f922e0faa3e0fba3e0fca3e0fd220b
:1001b000eaf0a3ebf0a3ecf0a3edf022cac0e0e676
:1001c000f30908dafad0e0fa22e4735392fed083fe
:1001d000d0822518f8c518c39824fbcef208e52074
:1001e000f208e9c0e07908e709f208defad0e0f9a0
:1001f000eff208d0e0fed0e0f208eef208e473a8d7
:1002000018e2fe08e208f520e9c0e07908e208f704
:1002100009dffae208ffd0e0f9e208c0e0e208c036
:10022000e088185392fe22e584f208e585f222e286
:1002300008f584e2f5852274028000c9c0e0e51863
:10024000c399f518c91201bcd0e0f922d083d0823d
:10025000ecc0e0edc0e0eec0e0efc0e0e493a3fc52
:10026000e493a3fde493a3fee493a3ffef4e4d4c70
:1002700060151202c8ec24fffced34fffdee34ffe4
:10028000feef34ffff80e5e493a3fce493a3fde4d9
:1002900093a3fee493a3ffef4e4d4c6015120305ac
:1002a000ec24fffced34fffdee34fffeef34ffffe6
:1002b00080e5d0e0ffd0e0fed0e0fdd0e0fce493ac
:1002c000a3c0e0e493c0e022c0e0c0f088f01201d7
:1002d0002da8f04007120104a8f0701aa3a3a3a34d
:1002e00012012da8f0a3a3a3a34013d0f0d0e0d017
:1002f000e0d0e00202b2a3a3a3a3a3a3a3a3a3a35a
:10030000d0f0d0e022c0e0c0f088f0120104a8f0e4
:10031000a3a3a3a3700bd0f0d0e0d0e0d0e0020202
:10032000b2a3a3d0f0d0e02274022408f874003401
:1003300000f9e4e9f8f5d374022408f5d25392feeb
:1003400022a2afe433f8c2af5392fe906270e0a2f3
:10035000e740f5e9c333906272f0906270e0d2e05a
:10036000f0906270e0a2e740f8e8fae8a2e092af0d
:100370005392fe2274fa1201cba2afe433f8c2af5b
:10038000ecfeedffe4effe900002f0ec900003f0d5
:100390009000047462f09000057473f0900006748d
:1003a00000f0e9900007f09000087412f090000946
:1003b0007442f0eafeebffe4effe906272f0ea9026
:1003c0006271f07e027f00e4effef5d575d4027510
:1003d000d601906270e0d2e1f0906270e0a2e74056
:1003e000f8e8fee8a2e092af7f010201ff5392fe1f
:1003f000906276e054706430700474038002740775
:10040000f875c6807480659e70fa9062707408f00a
:1004100088c790ff0ae0f5f190ff0be0f5f390ff3d
:100420000ce0f5f490ff0de0f5f590ff02e0f586a5
:1004300090ff03e0f5c490ff04e0f5c590ff05e0f0
:10044000f5c290ff06e0f5f890ff07e0f5fb90ff9e
:1004500008e0f5fc90ff09e0f5fae5f1a2e14008bb
:10046000e5ff543f4440f5ff5392fe2274fa120117
:10047000cb7900ecfeedffee24fffcef34fffdee48
:100480004f60128a828b83e029f98a828b83a3aa28
:1004900082ab8380de7f010201ffe51824ecf518b2
:1004a0007e005392fe900001e090001af07ea5e5d8
:1004b000c7f50975c7007c007d707a007b90120437
:1004c0006ce92efe8509c77508037f01efc3950807
:1004d000501ae5c7f5098fc77c007d807a007b80c4
:1004e00012046ce92efe8509c70f80e0ee7027e547
:1004f0009d54186410700890001ae0a2e040179014
:1005000000017403f0059290011ce0f582a3e0f570
:100510008305921201c91203ed9000017400f012dc
:1005200003281208d67480c0e0e518a818d0e0f2bd
:100530007404c0e0e5182401f8d0e0f27409c0e0ca
:10054000e5182402f8d0e0f27400c0e0e5182403b6
:10055000f8d0e0f2750c00750d00750e00750f00f7
:10056000e5182404f8740c12018fe4f50af50b78f1
:100570000a1202377c007d00e5182402faab93e5ed
:10058000182403f8e22404f912059405180518123a
:100590000a6880fb74f71201cb15181518a81812f9
:1005a000022789088a848b85ecfeedffe518240b71
:1005b000f8e2f50a08e2f50b780a120237eefcefd2
:1005c000fdaa84ab85a9081208da05180518a81831
:1005d00012022f051805187f040201ff74f712019b
:1005e000cbe518249cf518eafeebff8e828f83780a
:1005f00008120180900122780812016d7808120219
:100600004c0000000005000000000000004b080046
:100610000009004b08000009012906000009021822
:100620000700000903e807c70890012678081201af
:10063000808e828f83a3a3a3a3780812011d506329
:100640007400c0e0e5182450f8d0e0f27402c0e075
:10065000e5182451f8d0e0f27409c0e0e5182452fe
:10066000f8d0e0f27401c0e0e5182453f8d0e0f2cd
:10067000e5182454f87480f2087401f2e4f508f5e2
:100680000978081202377c007d00e5182452faab85
:1006900093e5182453f8e22404f91205940518058b
:1006a0001880728e828f83a3a3a3a31201a490014a
:1006b0001e1201b07400c0e0e518243cf8d0e0f24e
:1006c0007402c0e0e518243df8d0e0f27409c0e0ff
:1006d000e518243ef8d0e0f27401c0e0e518243fac
:1006e000f8d0e0f2e5182440f87400f2087400f243
:1006f000e4f508f50978081202377c007d00e5185a
:10070000243efaab93e518243ff8e22404f91205dd
:1007100094051805180208c790011e780812018078
:10072000e50854fff8e5095407f9e8497014900109
:100730001e7808120180740b7808120141a9081272
:1007400003418e828f83a3a3a3a3e0f9ee2405fccb
:10075000ef3400fd90011e780812018074027808c1
:10076000120141aa08ab091203748e828f83a3a3de
:10077000a3a3e0f508e4f509f50af50b90011e784e
:100780000812015a7400c0e0e5182428f8d0e0f2fd
:100790007402c0e0e5182429f8d0e0f27409c0e042
:1007a000e518242af8d0e0f27402c0e0e518242b02
:1007b000f8d0e0f2e518242cf87400f2087400f286
:1007c000e4f508f50978081202377c007d00e51889
:1007d000242afaab93e518242bf8e22404f9120535
:1007e00094051805180208c77400c0e0e518241421
:1007f000f8d0e0f27402c0e0e5182415f8d0e0f279
:100800007409c0e0e5182416f8d0e0f27403c0e0e3
:10081000e5182417f8d0e0f2e5182418f87400f26f
:10082000087400f2e4f508f50978081202377c0034
:100830007d00e5182416faab93e5182417f8e22496
:1008400004f912059405180518807c8e828f83a305
:10085000a3a3a3e0606c7480c0e0e518a818d0e002
:10086000f27404c0e0e5182401f8d0e0f27409c085
:10087000e0e5182402f8d0e0f27400c0e0e51824a6
:1008800003f8d0e0f2750800750900750a00750bd1
:1008900000e5182404f8740812018fe4f508f5093e
:1008a00078081202377c007d00e5182402faab9329
:1008b000e5182403f8e22404f91205940518051834
:1008c000800575c90880fe92f0e5182464f518a229
:1008d000f07f040201ff5392fe2274fa1201cb153d
:1008e000181518a818120227e9fee5182408f8e2de
:1008f000f58208e2f583059290001be0a2e05040eb
:10090000eeff74ff2ffeef6018e586a2e040fa8a42
:10091000848b85e0f5c18a848b85a3aa84ab85800e
:10092000dfecf8edf9e824fffce934fffde849606d
:100930000fe586a2e040fa5392fee0f5c1a380e104
:1009400043920190001be05402603e8e0874ff2524
:1009500008fee5086016a2f840fc8a848b85e0f565
:10096000f98a848b85a3aa84ab8580dfecf8edf946
:10097000e824fffce934fffde849600da2f840fce3
:100980005392fee0f5f9a380e3a81812022f051890
:1009900005187f010201ffecf8edf9e824fffce9fe
:1009a00034fffde849604ae586a2e24004a2fa501d
:1009b000f6e586a2e2501a5392fe90001be0440135
:1009c000f0e5c18a828b83f08a828b83a3aa82abf3
:1009d00083a2fa50c25392fe90001be04402f0e55d
:1009e000f98a828b83f08a828b83a3aa82ab83806d
:1009f000a65392fe2274fa1201cb15181518a818e6
:100a000012022775841c7585007c047d007a1c7b8e
:100a1000001209970592e0f879005407f8e95400ac
:100a2000f9e4c8f9e8fee9ff8584828585830592ab
:100a3000a3e0f879004efee94fffee4f6011eefca7
:100a4000effde5842404fae5853400fb120997aa3a
:100a500084ab851205dc7a017b00a81812022f05f1
:100a60001805187f010201ff1209f55392fe225367
:100a700092fe2274fa1201cb15181518eafeebff4c
:100a8000a818eef208eff2aa18ab937901120a6fd8
:100a900080ee12009322ffffffffffffffffffff2b
:100aa000ffffffffffffffffffffffffffffffff56
:100ab000ffffffffffffffffffffffffffffffff46
:100ac000ffffffffffffffffffffffffffffffff36
:100ad000ffffffffffffffffffffffffffffffff26
:100f000012010002000000205824feff0000010230
:100f1000030109021b0001010480250904000000ef
:100f2000fe01020409210d03e84000010104030948
:100f300004120342006c00750065006700690067d9
:100f400000610016034c006f007700200045006e22
:100f50000065007200670079000a03310032003337
:100f6000003400080344004600550000ffffffff67
:100f7000ffffffffffffffffffffffffffffffff81
:100f8000ffffffffffffffffffffffffffffffff71
:100f9000ffffffffffffffffffffffffffffffff61
:100fa000ffffffffffffffffffffffffffffffff51
:100fb000ffffffffffffffffffffffffffffffff41
:100fc000ffffffffffffffffffffffffffffffff31
:100fd000ffffffffffffffffffffffffffffffff21
:100fe000ffffffffffffffffffffffffffffffff11
:100ff000ffffffffffffffffffffffffffffffff01
:101000000210f702338effffffffff02271fffffd3
:10101000ffffff0227b6ffffffffff02286affff67
:10102000ffffff022955ffffffffff023be2ffff2b
:10103000ffffffffffffffffffffff02280effff85
:10104000ffffff02278ffffffffffffffffffffff5
:10105000ffffff023374fffffffffffffffffffff4
:10106000ffffffffffffffffffffff0226a8ffffbd
:10107000ffffff0228ddffffffffff0226e9ffff62
:10108000ffffff0233997582fe7583ff7401121111
:1010900012121133b900030210e1e479347802b876
:1010a00000028004f709d8fce490030278b57906c1
:1010b0008002f0a3d8fcd9fa9008b6aa82ab83903c
:1010c000113978cd79028015e493a3ac82ad838a7f
:1010d000828b83f0a3aa82ab838c828d83d8e9d9db
:1010e000e77582637583d7740212111275826a756f
:1010f00083db740212111275d00075813f753100c7
:10110000753202753303759f007593005392fe028a
:101110001091c09ff59fe473d09f225392fed0831d
:10112000d082c09fe493c0e0740193c0e074029346
:10113000f59f2279015392fe22ea3cf43cfe3c08e2
:101140003d123d1c3d263d303d3a3d443d4e3d580f
:101150003d623d6c3d763d803d8a3d943d9e3da87f
:101160003db23dbc3dc63dd03dda3de43dee3df8ef
:101170003d023e0c3e163e203e2a3e343e3e3e4858
:101180003e523e5c3e663e703e7a3e843e8e3e98c7
:101190003ea23eac3eb63ec03eca3ed43ede3ee837
:1011a0003ef23efc3e063f103f1a3f243f2e3f38a2
:1011b0003f423f4c3f563f603f6a3f743f7e3f880f
:1011c0003f923f9c3fa63fb03fba3fc43fce3fd87f
:1011d0003fe23fec3ff63f00400a4014401e4028eb
:1011e0004032403c40464050405a4064406e407857
:1011f0004082400080010001000000008000006f7c
:101200001575157b15811587158d15f7149b167da2
:10121000160117e916ef166f1b2d186d1da518fb8b
:1012200016a11629160717f114b40301ffffff00da
:1012300000000080ffffffff04000000000000002e
:10124000c0000000030000020000a5180102030016
:1012500000251a00000f00c3a88ee8b19dcf7f5e65
:10126000b98b9f41efb055f401fa00960064004b32
:101270000032001e001400d6be898e000106021244
:1012800013151429417671ffc1fbe84c90728be76e
:10129000b3518963ab232302841872aa612f3b5197
:1012a000a8e53749fbc9ca0c18532cfd45e300409b
:1012b0000000fffffffffaffffff00008000620059
:1012c0000000070000000500060007000000010004
:1012d0000100000100010202030002000000000002
:1012e000020201000240420f0019000000093d0007
:1012f00000e4fffffffb349b5f80000080001000d4
:10130000000000000012111b2ac40212111b40c46d
:101310000212111bc8c40212111b59c50212111b63
:10132000e0d50112111bf5d50112111b04d60112d3
:10133000111bf5d60112111b0dd70112111b1cd761
:101340000112111b32d70112111b3ed70112111bc2
:101350007fd70112111bc6d70112111b18d8011219
:10136000111b46d80112111bb0d80112111bccd889
:101370000112111b07d90112111b32d90112111bc5
:10138000c5d90112111b3bda0112111b93da0112ac
:10139000111bccda0112111b1edb0112111b59dbd0
:1013a0000112111b84db0112111bdfdb0112111b67
:1013b00023dc0112111b4adc0112111b9adc011201
:1013c000111bf5dc0112111bf8dc0112111b56dd9b
:1013d0000112111b8ddd0112111bc5dd0112111b44
:1013e000fddd0112111b34de0112111b5ede011244
:1013f000111b67de0112111bb2de0112111bd0e0be
:101400000112111b34e20112111b71e20112111bb6
:10141000b1e20112111bdee20112111b2ae30112db
:10142000111b63e30112111bf1e30112111ba1e473
:101430000112111bf0e40112111b50e50112111be6
:101440005be50112111b88e50112111b93e50112e6
:10145000111b32e60112111bbee60112111b08e737
:101460000112111b20e70112111b3ee70112111b93
:1014700060e70112111b81e70112111b9de70112a8
:10148000111b13e80112111b58e80112111bd3e8bc
:101490000112111be9e80112111b13e90112111bc2
:1014a00049e90112111b58e90112111ba0e90112af
:1014b000111bafe90112111bc7e90112111bf0e961
:1014c0000112111b20ea0112111b4dea0112111b1e
:1014d00060ea0112111b98ea0112111bfdea0112c8
:1014e000111b2eeb0112111b5beb0112111b67eba1
:1014f0000112111b6deb0112111b02ec0112111be9
:1015000078ee0112111bfdee0112111b66ef0112a4
:10151000111b9eef0112111be3ef0112111b27f0ab
:101520000112111b6bf00112111beaf00112111bc9
:101530004ff10112111ba9f10112111b25f2011229
:10154000111b6af20112111b1cf30112111be0f3b3
:101550000112111bd6f40112111bd9f40112111b37
:10156000eef40112111b03f50112111b2fd302120d
:10157000111b7dd30212111b93d30212111ba9d38d
:101580000212111bbfd30212111be0d30212111b56
:10159000f6d30212111b0cd40212111b71aa0212f3
:1015a000111bb8aa0212111bfbaa0212111b19abc4
:1015b0000212111b91ab0212111b02ac0212111b81
:1015c0003aac0212111b98ac0212111bb3ac0212fe
:1015d000111be0ac0212111b3ead0212111b55ade6
:1015e0000212111b77ad0212111ba2ad0212111bc8
:1015f000d7ad0212111b03ae0212111b3cae021238
:10160000111b63ae0212111b96ae0212111ba5ae86
:101610000212111baeae0212111b24af0212111bdb
:101620004cb00212111bd1bf0212111babc002122f
:10163000111b8ec10212111b22c20212111b85c284
:101640000212111bd2c20212111b1ac30212111b69
:10165000e8c30212111bffc30212111b16c40212af
:10166000111b83d60212111bb0d60212111b00806f
:101670000212111ba7800212111ba28c0212111b55
:10168000718e0212111b7ecf0212111be6cf0212c5
:10169000111b0ad00212111b59d00212111baed01d
:1016a0000212111b55d10212111b6ed10212111b15
:1016b000cd9a0212111bea9a0212111b059c02120a
:1016c000111b669c0212111b119d0212111b909e90
:1016d0000212111b189f0212111b5f9f0212111b95
:1016e000c89f0212111b26a00212111b7ba002121e
:1016f000111bf6a00212111b87a10212111b10a2ce
:101700000212111b5cdb0212111b60db0212111ba7
:1017100062db0212111b68db0212111ba1a2021272
:10172000111bb9a20212111be4a20212111b31a358
:101730000212111b4aa30212111b7ca30212111bdd
:10174000baa30212111beca30212111b63a4021212
:10175000111b82a40212111ba7a40212111bfea4ca
:101760000212111b95a90212111b49aa0212111b88
:10177000fbd70212111b13d80212111b84d80212bc
:10178000111bc7d80212111b2abb0212111b83bbeb
:101790000212111bebbb0212111b03bc0212111b24
:1017a0002dbc0212111b47bc0212111b7bbc021282
:1017b000111bd1bc0212111b0cbd0212111bbcbdae
:1017c0000212111be0bd0212111b68be0212111b96
:1017d00093be0212111bd5be0212111bfabe0212d9
:1017e000111b0ebf0212111b23bf0212111bcbbf14
:1017f0000212111be3b50212111bf1b50212111beb
:1018000022b60212111b4bb60212111b59b602125c
:10181000111ba0b60212111b5fb70212111bd4b725
:101820000212111b31b80212111b5db80212111bfa
:10183000d6b80212111bb2b90212111bbdb90212a5
:10184000111be2b90212111b36ba0212111b9cba0b
:101850000212111bceba0212111b5cda0212111b0a
:101860007cda0212111ba5da0212111b78d90212be
:10187000111b8cd90212111be3d90212111b0ddbb3
:101880000212111be7ff0112111bf5d80212111be6
:1018900022d90212111b18f50112111b7ff501123a
:1018a000111b96f50112111bdaf50112111b20f61e
:1018b0000112111b86f60112111bdaf70112111b1e
:1018c00002f90112111ba4f90112111bc8f901122e
:1018d000111b0afa0112111bb8fa0112111b06fba7
:1018e0000112111b63fb0112111b76fb0112111b6c
:1018f00076fc0112111b96fd0112111b0cfe011248
:10190000111baa450012111b55470012111bd2478b
:101910000012111b25490012111b97490012111bbf
:10192000d1490012111b8a4a0012111b184b0012d8
:10193000111bdb4b0012111b034d0012111bf74d45
:101940000012111b384f0012111ba04f0012111b67
:1019500008500012111b85500012111b3b51001240
:10196000111bad510012111b46520012111bac523b
:101970000012111b1a530012111b6f530012111b7e
:1019800005540012111bb8540012111b7f55001290
:10199000111b3c570012111b87590012111bcc5907
:1019a0000012111b485a0012111bb05a0012111bd1
:1019b000fe5a0012111b8a5c0012111b2a5d0012d4
:1019c000111b9b5d0012111b1b5f0012111b7c5f22
:1019d0000012111ba0600012111b8f610012111b5d
:1019e000ab620012111b0a640012111bc1650012c8
:1019f000111b71680012111bfe680012111bbb69dc
:101a00000012111ba86a0012111b0c6b0012111b93
:101a1000686f0012111bce710012111ba072001210
:101a2000111b16750012111b38760012111bc3779b
:101a30000012111bda770012111bd7c70212111bfb
:101a400015c80212111b7cc80212111ba8c8021271
:101a5000111b74c90212111b4bca0212111bbf7e4b
:101a60000012111b187f0012111b797f0012111b2d
:101a700000800112111b1e800112111b3b800112fc
:101a8000111b58800112111bbb800112111b4e81ca
:101a90000112111b20830112111b86830112111bdd
:101aa000ca830112111b07840112111b3c8401120d
:101ab000111b87840112111bf5840112111ba385d0
:101ac0000112111bb1850112111bed860112111bb0
:101ad00042890112111bce890112111b028a0112c7
:101ae000111b498b0112111b858c0112111bac8c2f
:101af0000112111be88c0112111b1b8d0112111b0d
:101b000003910112111b2b910112111b8d910112d6
:101b1000111b04970112111b46970112111b869786
:101b20000112111b3c980112111b17990112111b74
:101b3000799b0112111bc59c0112111b369d0112cc
:101b4000111b729f0112111bea9f0112111b2ea083
:101b50000112111b7ca00112111bcfa00112111b3d
:101b60006ba10112111bbba10112111b16a20112c4
:101b7000111b20a20112111b5da30112111bf2a364
:101b80000112111bb6a40112111b62a50112111b37
:101b900017a70112111b39a70112111b56a9011217
:101ba000111babaa0112111b48ab0112111b9cabfc
:101bb0000112111b01ac0112111bf1ad0112111b1d
:101bc00002ae0112111b0cae0112111bfbaf011270
:101bd000111b58b00112111b95b00112111b09b154
:101be0000112111b38b10112111be1b10112111bbd
:101bf0005cb20112111bbdb20112111b33b30112f1
:101c0000111b6ab30112111b9fb30112111bbdb34b
:101c10000112111b1cb40112111b2ab40112111b59
:101c200069b40112111bdab40112111bdfd40212c4
:101c3000111b83d50212111ba7d50212111bf2d55d
:101c40000212111b31d60212111bc9ff0112111b06
:101c50000b8f0212111b378f0212111b838f02127e
:101c6000111bd08f0212111b4c900212111ba0925b
:101c70000212111bd4930212111b37960212111b70
:101c800015970212111b19980212111b16990212b4
:101c9000111b87990212111b899a0212111b91cafa
:101ca0000212111bbdca0212111bd4ca0212111b4f
:101cb0006ecb0212111b9acc0212111ba6b5011297
:101cc000111b0db60112111b2ab60112111b57b6ba
:101cd0000112111bc0b60112111becb60112111b2f
:101ce00020b70112111b78b70112111ba5b7011201
:101cf000111b08b80112111b63b80112111b28b97e
:101d00000112111ba6b90112111b48bb0112111bb4
:101d100000bc0112111bb2be0112111b2ac201121a
:101d2000111b6cc20112111bc1c20112111b79c31c
:101d30000112111b56c50112111bfac50112111b0c
:101d40003bc60112111b89c60112111be1c601120b
:101d5000111b07c70112111b5ac70112111b9bc788
:101d60000112111b1cc90112111b36ca0112111bd1
:101d700047ca0112111ba5cb0112111bbbcb0112cb
:101d8000111be3cb0112111b82cc0112111b97cc4a
:101d90000112111bc9cc0112111be1cd0112111b43
:101da000a4ce0112111bf0ce0112111b35cf01126e
:101db000111be8cf0112111b43d00112111b50d18e
:101dc0000112111ba4d10112111be8d10112111b28
:101dd00032d30112111b47d50112111b77d5011205
:101de000111b78d10212111b85d10212111ba8d12f
:101df0000212111bebd20212111bf8d20212111b9c
:101e000026d30212111b70b00212111be0b0021295
:101e1000111b0db10212111b57b10212111b22b27c
:101e20000212111bccb30212111b26b40212111b99
:101e300034b40212111b3bb50212111ba4b50212dd
:101e4000111b2eff0112111b5cff0112111b8cffd5
:101e50000112111b3ccd0212111bc9cd0212111b24
:101e6000fbcd0212111b6cce0212111b10cf0212fd
:101e7000111b23cf0212111b86100012111befd968
:101e80000212111bbada0212111bd17f00e0667038
:101e90001008a3e066700a08a3e066700408a3e0d7
:101ea0006622c3e7960809e7960809e7960809e756
:101eb00096a2d265d03322c3e09608a3e09608a389
:101ec000e09608a3e096a2d265d03322c021c3e0f9
:101ed00096f52108a3e096422108a3e09642210846
:101ee000a3e0964221a2d265d033e5217001d3d080
:101ef0002122c3e7960809e7960809e7960809e74b
:101f00009622c3e09608a3e09608a3e09608a3e013
:101f10009622c021c3e096f52108a3e0964221084d
:101f2000a3e096422108a3e09645217001d3d02179
:101f300022080808eac0e0ebc0e086f0e7a4fa183f
:101f40000986f0e7a42afa180986f0e7a42afa1805
:101f50000986f0e7a42afa1986f0e7a4fbe5f02a3f
:101f6000fa190886f0e7a42bfbe5f03afa1908867f
:101f7000f0e7a42bfbe5f03afa18180986f0e7a47d
:101f8000c5f02bfbe43afa1908e7c5f0c6a426f61b
:101f9000e5f03bfbe43afa1886f0e7a4f6e5f00832
:101fa00026f6e43b08f6e43a08f6d0e0fbd0e0fa87
:101fb00022e4cfc0e0e4cec0e0e4cdc0e0e4ccc099
:101fc000e075f020c3e633f608e633f608e633f6ac
:101fd00008e633f6181818ec33fced33fdee33fe4b
:101fe000ef33ffc3ec9709ed9709ee9709ef9719c7
:101ff0001919400fffec97fc09ed97fd09ee97fecc
:10200000191906d5f0beecf709edf709eef709ef5f
:10201000f7191919d0e0fcd0e0fdd0e0fed0e0ffc8
:1020200022122089181818121fb1122078191919b4
:1020300022122078191919080808e618181820e73c
:10204000e0121fb112208918181822090909e7198e
:10205000191920e7dc080808e618181820e7030219
:102060001fb1122089181818121fb11220891818d0
:102070001812207819191922e4c397f709e497f781
:1020800009e497f709e497f722e4c396f608e49683
:10209000f608e496f608e496f6226017080808c6e3
:1020a000a2e713c618c613c618c613c618c613c6a9
:1020b000d5e0e9226016080808c6c313c618c6137f
:1020c000c618c613c618c613c6d5e0ea227009089a
:1020d0000808226016181818c6c333c608c633c6c7
:1020e00008c633c608c633c6d5e0ea22e627f60896
:1020f00009e637f60809e637f60809e637f622e07a
:1021000026f608a3e036f608a3e036f608a3e03684
:10211000f622e026f008a3e036f008a3e036f00847
:10212000a3e036f022c3e697f60809e697f6080919
:10213000e697f60809e697f622c3e0c696f608a3e6
:10214000e0c696f608a3e0c696f608a3e0c696f6a3
:1021500022e056f608a3e056f608a3e056f608a3d8
:10216000e056f622e647f60809e647f60809e6478c
:10217000f60809e647f622e046f608a3e046f60828
:10218000a3e046f608a3e046f622e046f008a3e006
:1021900046f008a3e046f008a3e046f022e066f629
:1021a00008a3e066f608a3e066f608a3e066f62258
:1021b000e0f608a3e0f608a3e0f608a3e0f622e4c0
:1021c00093f608740193f608740293f60874039367
:1021d000f622e6f008a3e6f008a3e6f008a3e6f08e
:1021e00022e0faa3e0fba3e0fca3e0fd22eaf0a3d7
:1021f000ebf0a3ecf0a3edf022cac0e0e6f0a308f8
:10220000dafad0e0fa22cac0e0e0a30592f0a30512
:1022100092daf6d0e0ca22cac0e0e493a30592f0b5
:10222000a30592daf5d0e0ca225392fefae9fb79cf
:1022300021e7f0a309dafae8f0a3ebf9f0a3ecf058
:10224000a3edf0a3eef0a3eff0a3e520f0a3e5f0fb
:10225000f0a3e592f0a3e584f0a3e585f0a3e58182
:10226000f0a3e531f0a3e532f0a3e533f0a3d0e02d
:10227000fad0e0f0a3caf0eac0e0e0c0e07a007b68
:1022800000225392fecac0e0ebc0e07921e0f7a340
:1022900009dafae0f8a3e0f9a3e0fca3e0fda3e08b
:1022a000fea3e0ffa3e0f520a3e0f5f0a3e0c0e08b
:1022b000a3e0f584a3e0f585a3d0e0f592d0e0fba0
:1022c000d0e0fae0f581a3e0f531a3e0f532a3e038
:1022d000f533a3d0e0d0e0e0c0e0a3e0c0e0ea4bfb
:1022e00070027a0122b90010bb0008e88af084f875
:1022f000aaf022e4fbc8fa22eb70227b10c833c894
:10230000c933c9335007c39ac3dbf280069a500120
:102310002adbeac833f4c8c933f4c9fa2275f008d5
:10232000e4c833c8c933c933c99ac99b5004c92a00
:10233000c93bd5f0ecfbc833f4c8e4c9fa22600d00
:1023400008c6a2e713c618c613c6d5e0f322600c70
:1023500008c6c313c618c613c6d5e0f422700422fb
:10236000600d18c6c333c608c633c6d5e0f41822bc
:10237000253210af08f532400215338008f532409f
:10238000021533d2af22c0d0253210af08f532503b
:102390000205338008f53250020533d2afd0d02287
:1023a0002532f58210af08f532400215338008f56a
:1023b0003240021533d2af85338322c5822532c520
:1023c00082c583353310af07f5338582328007f538
:1023d00033858232d2afc583222532f582e435338c
:1023e000f583222532f584e43533f58522e47353f1
:1023f00092fe2532c582c0e0e53334ffc583c0e0dc
:10240000e532c3958224f810af0885833385823284
:102410008008858333858232d2afcef0a3e520f0e9
:10242000a37821e608f0a3defaeff0a3e58124fa11
:10243000f8e608f0a3e608f0a3e608f0a30808e62b
:1024400008f0a3e608f0a315811581d0e0fed0e0e6
:10245000f8158115811581e8c0e0eec0e0225392a5
:10246000fe2532c582c0e0e53334ffc583c0e0e518
:1024700032c3958224f910af088583338582328078
:1024800008858333858232d2afcef0a3e520f0a356
:102490007821e608f0a3defaeff0a3e58124fbf84b
:1024a000e608f0a3e608f0a30808e608f0a3e608ab
:1024b000f0a315811581d0e0fed0e0f815811581db
:1024c000e8c0e0eec0e0225392fe8533838532827d
:1024d000e0a3fee0a3f5207821e0a3f608dffae010
:1024e000a3ffe0a3c0e0e0a3c0e0e0a3c0e0e0a35e
:1024f000c0e0e0a3c0e010af08858232858333805e
:1025000008858232858333d2afd083d0825392fe46
:102510000211185392fe853383853282e0a3fee0d8
:10252000a3f5207821e0a3f608dffae0a3ffe0a3fb
:10253000c0e0e0a3c0e0e0a3c0e0e0a3c0e010afd3
:10254000088582328583338008858232858333d241
:10255000afd083d0825392fe22c0925392fec0d05d
:102560002532c582c0e0e53334ffc583c0e0e532e3
:10257000c3958224f210af088583338582328008a8
:10258000858333858232d2afc8f0a3e9f0a3eaf0a5
:10259000a3ebf0a37921e709f0a3d8faecf0a3edbf
:1025a000f0a3eef0a3eff0a3d0e0f0a3d0e0f0a30f
:1025b000d0e0f0a3e520f0a3e5f0f0a3d0e0f02216
:1025c0005392fe853383853282e0c0e0a3e0f9a315
:1025d000e0faa3e0fba37821e0f608a3dffae0fc31
:1025e000a3e0fda3e0fea3e0ffa3e0c0e0a3e0c002
:1025f000e0a3e0f5d0a3e0f520a3e0a3f5f0e0a38d
:10260000c0e010af0885833385823280088583332c
:10261000858232d2afd0e0d082d083f592d0e0f87c
:10262000d0e032e584f0a3e585f022e0a3f584e074
:10263000f5852274048006740280027401c0e0f4ff
:10264000041223a0d0e01221f9227404800674023f
:1026500080027401c0e0f4041223a0d0e01222062c
:1026600022d083d082e9c0e0e493a3c386f0c5f012
:1026700095f0f908e493a386f0c5f095f0700be4ab
:1026800093a3c3994005e9048002a3e475f002a472
:102690002582f582e5f03583f583d0e0f9e493a354
:1026a000c0e0e493c0e022ffc0e0c0d075d018c005
:1026b00092c082c083c0f0123c979003851221ed36
:1026c000e58955ab900389f0e58090038cf07b00a1
:1026d0007a007906121e27758900c2c5d0f0d08312
:1026e000d082d092d0d0d0e032c0e0c0d075d00837
:1026f000c092c082c083c0f0123c97900385122123
:10270000ede58a558d90038af0e59090038df07b7e
:10271000017a007906121e27758a00c2eb80bdc0bf
:10272000e074f11225599061a9e4f0900393e064fc
:102730000f7012e5c7f89006a8e0f5c790ff1ce0ff
:10274000f4f5ae88c7e5bbf9e5bafae9fb90039367
:10275000e0c333f8e433f9749428f582740339f54f
:1027600083eaf0a3ebf0900393e02410fb7a007966
:1027700006121e27e5a8f8c2af900813e0c2e2f0e7
:10278000753400e8a2e7a2e792af7f010225c0c03e
:10279000e0c0d075d018c092c082c083c0f0e5d12f
:1027a000f875d100c2c0a2e350097b037a00790416
:1027b000121e270226dcc0e0c0d075d008c092c02f
:1027c00021c022c082c083c0f05392fe90057212d5
:1027d00028cf602b90052de0700c7401f07b007aff
:1027e000007904121e27ee900572f0e5c1c0e07476
:1027f000742521f58274053400f583d0e0800be563
:10280000c4a2e6500690052c7401f00228bec0e078
:10281000c0d075d008c092c021c022c082c083c081
:10282000f0c2e95392fe90052fe0fa90052ee09a4f
:10283000543ff860258a2174302521f582740512f1
:10284000293990052ff089c1900570e06870197bd7
:10285000027a007904121e27800ee5a8f8c2af9014
:102860000813e0c2e31229458054c0e0c0d075d0ff
:1028700008c092c021c022c082c083c0f05392fe23
:102880009005fc1228cf602a9005b7e0700b740108
:10289000f07b00fa7904121e27ee9005fcf0e5f9b2
:1028a000c0e074fe2521f58274053400f583d0e084
:1028b000800be5fba2e650069005b67401f0d0f05f
:1028c000d083d082d022d021d092d0d0d0e032e0bc
:1028d000f52174012521543ffea3e06e22c0e0c023
:1028e000d075d008c092c021c022c082c083c0f081
:1028f000c2ea5392fe9005b9e0fa9005b8e09a5406
:102900003ff860258a2174ba2521f58274051229c1
:10291000399005b9f089f99005fae06870197b02e1
:102920007a017904121e27800ee5a8f8c2af90083c
:1029300013e0c2e412294580853400f583e0f97480
:10294000012a543f22f0753400e8a2e7e433f9e8a5
:10295000a2e792af22c0e0c0d075d008c092c0827a
:10296000c083c0f0759800e5a8f8c2af5392fe90fe
:102970000813e0d2e1f0753400e8a2e7e433fee8a2
:10298000a2e792af12175bd0f0d083d082d092d062
:10299000d0d0e032c082c0835392fe906059e0f8fc
:1029a0009007e3e028f0906058e0f89007e4e02812
:1029b000f090605a1229cd90605e1229cd90605c33
:1029c000e0f89007e6e028f0d083d08222e0f8908b
:1029d00007e5e028f022c082c0835392fe9007e30f
:1029e000e4f0a3f0a3f0a380de74f712245e790074
:1029f000121ddf90072f123222eac398f8eb99f9e3
:102a0000e82404fee93400ff90073ce0fca3e0fd6d
:102a1000c3ee9cef9d402e90073ae0fca3e0fd90b2
:102a2000073ee02af8a3e03bf9e8c39cf8e99df9ea
:102a300090072f123219a3ecf0a3edf090073cecb5
:102a4000f0a3ed802390072f122eef90073c123059
:102a50001690073c12322290073112321990073833
:102a6000e070047402800114f07a2d7b07123a287a
:102a7000023a7b74f712245ee9600924fe601d149b
:102a8000601a8032900736e0a2e35009900739e0df
:102a90006024148020c2e2f0d2e38019900736e06f
:102aa000a2e2500c900739e06408600ae004800557
:102ab000c2e3f0d2e2f0900737e070089007357477
:102ac000fff0804890600a122ee7703d90618fe021
:102ad000c0e0900739e0f87408c398f8d0e0b80077
:102ae000028004c313d8fcf52174ff65217009909e
:102af000600ae4f0a3048010e5212401f8e4340026
:102b0000f990600ae8f0a3e9f01229e9023a7b742f
:102b1000f712245ee924fc600624fe6029800d90f3
:102b200007fce06401705f121b39805a900756e081
:102b300064017012900750e4f07b091232ebfa79cd
:102b400000121e278040900750e0700890074e74d6
:102b5000fff080327900121ddf8a218b22a821a983
:102b600022900752e028faa3e039fb90618fe054ed
:102b70001ff8ea28f8eb3400f99007481232197a66
:102b8000467b07123a28023a7b74f712245e74fee1
:102b90001223a01226239007a0123222e82412fa50
:102ba000e93400fb90605ce060088a828b83e0d2ad
:102bb000e1f0e82430fce93400fde82432f584e952
:102bc0003400f58590605ae0700690605ee06036f3
:102bd0008a828b83e0a2e14019d2e1f0e82422f559
:102be00082e9122ecc122edf12235d8c828d83128d
:102bf0003a20e40592f0a3f0790085328285338390
:102c00005392fe023a73e8241ef582e9122ed3fe97
:102c1000a3e0ff858482858583e02ef0a3e03ff06a
:102c20008c828d830592e0fca3e0fdc30592e09cbd
:102c3000a3e09d50c388828983a3a3a3a3a3a3a3d6
:102c4000a3a38582848583858a828b83e0a2e15059
:102c50000474088002743e0592f07b0288828983a6
:102c60000592a3a3a3a3a3a3a3a3e0fa7900121e32
:102c7000277901808574f512245e74fe1223a01258
:102c80002623122ed7240a122ebbfc7003022ea379
:102c9000ee242e1236e41232228e828f83a3a3a357
:102ca000a3a3a3a3a38582238583248e828f83a3da
:102cb000a3a3a3a3a3a3a3a3aa82ab83ee2434124a
:102cc0002ed0687003a3e069701a74026c7003025e
:102cd0002e3974016c607774096c60258a828b834d
:102ce00074228055ec146066147003022e3924faa5
:102cf000601c14600c146042147003022e7f022ebc
:102d0000a3906008e0a2e65003022ea3802cee24dc
:102d100039122ec9801388828983a3a3a3e0640398
:102d20007003022ea388828983122ee770e88a82bc
:102d30008b83e0641370037416f07b028523828515
:102d40002483e0fa7900121e277901022ea5ee24d1
:102d5000551234e8ee244cfcef3400fdea24fff574
:102d600021eb34fff522e521687003e52269706ddf
:102d7000ee244d122f758e828f83122eed8c828d54
:102d800083e0c333f8e433f9e82403f8e9340012ac
:102d900032109007d1e0a2e050098e828f83a3a366
:102da0001232159007ebe4f0a3f0a3f0a37402f045
:102db0009007d1e0a2e04003022ea3906062e4f00d
:102dc0008c828d83e0f875f0e2a4c8aaf075f00457
:102dd000a42af9e8123205123219022ea3ea687009
:102de00002eb696003022ea3752109752200782188
:102df000122637ee241bfaef3400fb121e817402f8
:102e00001223869007d1e0a2e05007eefaeffb1202
:102e10001a85e40592f0ee24221236e4122edf1217
:102e2000235dee2430122ec9123a20ee2432122ee7
:102e3000c9e4f0a3f07b08805de8240108e93400d0
:102e4000f9ee245c122ed0687003a3e0697054750b
:102e500021057522007821122637ee2457fcef3425
:102e600000fdee2424faef3400fb121e81740212de
:102e70002386eefaeffb121b33e40592f08024ee7a
:102e8000faeffb121761e40592f005929007d1e08a
:102e9000a2e0500f7b07852382852483e0fa790026
:102ea000121e2779008532828533835392fe1226c3
:102eb0002b74021223867f04022513f584ef34005d
:102ec000f5850592e022ee2414f582ef1234da2221
:102ed000f582ef1234e2229007a012382fee221270
:102ee00030427403782122123226e84922a3a3e05b
:102ef00028f0a3e039f02274f812245e74fe122345
:102f0000a01226239007a0e0f584a3e0f585122cfb
:102f100075e9704e122b89e97048e584242ef582fc
:102f2000e585122ed32401f0a3e03400f090600870
:102f3000e0c0e0e5842436f582e585122eccd0e0b1
:102f4000f0e584241ef582e585122f780592a3a36f
:102f5000e028f0a3e039f005929007a01234eb12bc
:102f60003a2885328285338312262b7402122386f7
:102f70007f01022513f582ef1234da122f7f22e04f
:102f8000f8a3e0f9e8c333f8e933f92274f712241f
:102f90005e74fe1223a01226238a828b83a3a3ac25
:102fa00082ad839007f0ea241ef584eb122ebef862
:102fb000a3e0f9e8c333f8e933f99007d3e0f5214a
:102fc000a3e0f52212302c0592e028f8a3e039f9ad
:102fd0008c828d831232199007eb12301f8c828df8
:102fe000831230169007ed12301f7a207b4e12228a
:102ff000e5882189228c828d83e09521f0a3e095dc
:1030000022f09007f212301fe8c333f8e933f9e8f1
:103010001231fd023a6cc3e098f0a3e099f022125d
:1030200032269007d312304212302c22e88521f04c
:10303000a4c8aaf08522f0a42afa8521f0e9a42ade
:10304000f922e0f521a3e0f5222274f712245e7440
:10305000fe1223a0122623122ed72412122ebba258
:10306000e35008c2e3f005920231f18e828f8305ae
:1030700092a3a3858221858322906062e06010790b
:1030800010121ddf852182852283eaf0a3ebf01266
:103090002c75e960030231fa122b89e960030231d1
:1030a000fa906008e0c0e0ee2436122ec9d0e0f0bd
:1030b0009061d5e0f89061d7e06805926005e0d2b4
:1030c000e28003e0c2e2f00592906062e09007edda
:1030d0006017e024c0faa3e03437fb123c6c900781
:1030e000f21238351231fd80151234eb123c569035
:1030f00007f2122f7b906064e028f0a3e039f0859e
:103100002182852283e024fff0a3e034fff0ee2447
:103110002b122ed09007eff0ee2420122ec9122e83
:10312000e7604b8e828f83a3a3a3a3a3a3a3a3a330
:10313000a3e0703aee24321234e8ea4b7030ee2409
:10314000391234e8ea4b7026e8240108e93400f922
:103150009007d31232198521828522831232229060
:1031600007f0123219eefaeffb122f8c802790072e
:10317000d37401f0a3e4f0ee241e122f7585218292
:10318000852283122eef9007eb1232228521828551
:1031900022831230168e848f850592a3a3a3a3a346
:1031a000a305929060641232227a717b021222e5aa
:1031b000e82405f8e93400f9858482858583123294
:1031c000198e828f83a3a3a3a31234eb85848285f7
:1031d0008583e0f8c3ea98eb99a2d265d033500515
:1031e000eaf0a3ebf012321fee242e122ec9122e9b
:1031f000ef9007a01234eb123a28023a6d12320512
:10320000e8f0a3e92224eaf8e93402f990606422a4
:10321000f98e828f83a3a3a3a3e8f0a3e9f0229001
:1032200007d312322622e0f8a3e0f92274f7122421
:103230005e74fe1223a0122623803bc2e5f01232f8
:10324000d9e0f808089007fae028f01232ebc0e065
:103250001232d9d0e0f09007fae004f0a3e004f0d5
:10326000a3e004f09007fee0700c7401f07b007a9c
:10327000007900121e2790605ae0f521906002e06c
:10328000a2e050047800800590605de0f89007fbb4
:10329000e0fae52128f8e43400f9e86a7001e96011
:1032a000359007fae004547ff52174802521f582da
:1032b00074601236e79007a0e0f8a3e0c82408f590
:1032c00084e83400f585e0a2e70592e0400302328d
:1032d0003bd2e502323d023a6d9007fae0547ff8a6
:1032e000748028f58274601234da229007a0e0f826
:1032f000a3e0c82408f582e81234e22274f512240f
:103300005e74fe1223a0122623892105929007a045
:10331000e0f582a3e0f583858284858385a3a3a35a
:10332000a3a3a3a3a3e0a2e740479007fde0f89082
:103330006054e0c398f5229007fde02522f0ae82ac
:10334000af838012ee2439faef3400fb121a5beae5
:103350004b6003121c4185222374ff2523f52204b0
:1033600070e2e521a2e640097900eefaeffb121bbc
:10337000b1022ea5c0e074f11225598535c675a796
:103380000075a1007950121dfd7f010225c0c0d03b
:1033900075d01875bf00d0d032c0e0c0d075d0183d
:1033a000c092c082c083c0f08535c6e591fe759b92
:1033b00000f4f5915392fe906002e0a2e050047890
:1033c00000800278087900e844015e600312322c24
:1033d000eea2e55004f91232fceea2e75029e5a86e
:1033e000f8c2af900813e0d2e0f0753400e8a2e72d
:1033f000e433f9e8a2e792afe594a2e240097594bc
:1034000003e594a2e250faeea2e640030234b4903f
:103410006061e0f99007fbe4f09007fdf09007a0f1
:103420001234eb8a828b83a3a3a3a3a3a3a3a3e059
:103430002404601014600814700f122a73806d1237
:103440002b0f8068121a7f80639007d0e06005140c
:1034500060338048906060e064806040e0c0e0eaf3
:103460002413f582eb122eccd0e0f0906060e0c027
:10347000e09007a0e0f8a3e0c8242cf582e812341d
:10348000c8d0e08016906058e0f890605ce028f8c2
:10349000ea242cf582eb1234c8e028f09007d1e042
:1034a000a2e0500512304a8003122ef7122994121e
:1034b0001a6d8004a2e75003123a80d0f0d083d076
:1034c00082d092d0d0d0e0321234e2fa74ab2af536
:1034d0008274071234da22f582ef3400f58322f584
:1034e00082ef3400f583e0221234d7e0faa3e0fb48
:1034f0002274f712245e74fe1223a0122623900772
:10350000a0e0fca3e0fd12321fec2429f582ed12ad
:103510002eccec242bfaed3400fb8a848b857401cd
:10352000687001e97012e0f80592e028fac394256a
:10353000402a74db2afa8024e0f521e88521f0a4f2
:10354000f8aaf08521f0e9a42af90592e0fae82a20
:10355000f8e93400f97a257b001222e5eaf07407d5
:103560005af87401b800028004c333d8fcfbea1394
:103570001313541ff8ec28f8ed3400f9e82424f56f
:1035800082e91236e7e05b702a8005e8cac39afa3e
:10359000ec24e5f582ed122ed3f8eac39850ec8abc
:1035a00021ec2521f8ed3400f9e824c0f582e91278
:1035b0002ed3faec242cf582ed122eccea023a6cd2
:1035c00074f612245e74fe1223a01226239007576d
:1035d000e09060026004740e8002740ff090075156
:1035e000e0906001f09009f41221e19061951221c0
:1035f000ed121bbd900756e0f5217401652190077f
:103600004f7040e05402f97a587b07121aa39007d2
:103610004fe0a2e050097add7b0775214080077af0
:10362000d77b07752100a2e150047e8080027e00d6
:10363000752306782312263b7c587d07e5214e44ee
:10364000018066e0a2e050087add7b0778408006c2
:103650007ad77b077800059290077d1226527c5e10
:103660007d0774f82521f58274091236e7e048f9e0
:10367000121aa97401122386900756e0f8600574a7
:103680000268702e90074fe0a2e050087add7b07b9
:10369000784080067ad77b077800059290079d12c4
:1036a00026527c7e7d07e84404f9121aa97401129f
:1036b000238690074fe0a2e0e433f9121a9d75913a
:1036c00000900757e0906182600474c8800274c063
:1036d000f085328285338312262b74021223867f73
:1036e00003022513f582ef1234da059222c082c05c
:1036f000835392fe906002740ff0900738e004f05c
:1037000064037002e4f0e02425906000f09009f476
:103710001221e19061951221ed900736e05420f9d5
:10372000121a9d121bbd900736e0a2e15004d2f0a0
:103730008002c2f0a2f0e43390600cf0900736e013
:10374000a2e1503575d90da2e55004784080027889
:1037500000e84403f5d9e0a2e550067add7b078056
:10376000047ad77b077906121a73740675d9001488
:1037700070fae5e170fc75e19575910090618274d5
:10378000c10229c774f812245e74fe1223a0122607
:1037900023123822121bbd122ec61221e190619510
:1037a0001221ed1238681234f112383af584ef34f0
:1037b00000f585858482858583123853121bb1ee0e
:1037c0002412122ed0a2e250180592e0f8a3e0f5e0
:1037d0008388820592a3a3e02402f89061d5e028b3
:1037e000f0022f6274f812245e123822121bbd12ee
:1037f0002ec61221e19061951221ed123868123423
:10380000f112383a122ec9123853121bb1ee241e8f
:10381000122ec912383524fcf8e934ff1232100296
:103820002f709007a012382f906002740ff022e0e2
:10383000fea3e0ff22122f7fe822ee242c1234dfb9
:10384000906000f0759100900807e0906182f0eec2
:10385000243922123226ee24371234d7e8f0a3e9b5
:10386000f07900eefaeffb22ee24361234df90609e
:1038700008f0ee24181234df906005f0ee241912df
:1038800034df906006f0ee241a1234df906007f007
:103890009060607480f02274f112245e74fe122332
:1038a000a01226237521007522007ca77d07801bae
:1038b0008882898312382f8c828d83eef0a3eff0fb
:1038c00088828983123a20882189228c828d8312f2
:1038d0002eda4f70398c828d83eaf0a3ebf08a8266
:1038e0008b83e4f0a3f0aa21ab2285328285338357
:1038f00012262b74021223867f08022513e5232546
:1039000027f8e5243528f98a828b83122eedeef80c
:10391000eff988828983a3a38a848b850592a3a368
:10392000e0f523a3e0f5240592e0c39523f523a356
:10393000e09524f5248a828b83a3a3a3a3a3a3e009
:10394000f525a3e0f526c3e5239525e5249526a2d4
:10395000d265d033403e8a828b831232198a828ba1
:1039600083a3a3a3a3858284858385123222c3e522
:103970002398e52499a2d265d033500d85848285a1
:103980008583e523f0a3e524f08c828d83eaf0a300
:10399000eb0238e588828983a3a3a3a3a3a3e0f560
:1039a00027a3e0f528c3e49527f525e49528f52617
:1039b000c3e5259523e5269524a2d265d03350286a
:1039c0008a828b83a3a3a3a3a3a3a3a3e0a2e7500c
:1039d000030238fd88828983a3a3a3a3a3a3a3a37f
:1039e000e0a2e750030238b088828983a3a3a3a38f
:1039f000858284858385c3e49523fce49524fd12a8
:103a0000382fc3ec9eed9fa2d265d033500b858436
:103a100082858583ecf0a3edf0e8fce9fd0238cb6c
:103a2000e521f0a3e522f02274f712245e74fe1261
:103a300023a0122623ea4b6031a2afe433fec2afcb
:103a40001238978a828b838016aa82ab8385828400
:103a50008583850592e0f582a3e0f583123897e52a
:103a600082458370e4eea2e092af8001f08532825d
:103a700085338312262b74021223867f02022513bc
:103a800074f512245e7900121ddf8a238b24797766
:103a9000121dfd9061b1e4f0e070f87403f0e06491
:103aa0000370f89007a71232229007a0123219e88b
:103ab000497012123bc5e594a2e24003023bbf7578
:103ac0009400023bbf888289831234eb9007a7eaf7
:103ad000f0a3ebf088828983a3a312304288828905
:103ae00083a3a3a3a3e02521faa3e03522fbea24c4
:103af000fdfeeb34ffff88828983a3a3a3a3a3a3c6
:103b0000a3a3e02404601214600514600780471228
:103b100035c080521236ed804de521c39523e52254
:103b20009524c39400a2d265d0335025e523240107
:103b3000f521e5243400f522c3e5219ee5229f40ce
:103b40000ae5212401fee5223400ff90072f123af6
:103b500020121bc380109007d1e0a2e0500512375d
:103b60008480031237e4aa21ab227930121df1eed2
:103b7000faeffb7940121df17954121dfde521c3c6
:103b80009523f8e5229524f9c3e89401e99400a26d
:103b9000d265d033500c121bd5e5e170fc75e121e4
:103ba000801d9006a7e0a2e04012aa21ab22121dc0
:103bb000eb9007e71221ed123bc58003121bd512d3
:103bc0001cb3022eb6e5a8f8c2af900813e0c2e01d
:103bd000f0753400e8a2e7a2e792af22853487c2ed
:103be000af22c0e0c0d075d018c092c082c083c0e0
:103bf000f074fc1223705392fe900814e0601c12c3
:103c00001a979006a7e054117008e5c65438448707
:103c1000f5c6900814e4f0c2c78026c2c785328278
:103c2000853383aa82ab83121bcfe96401701290a3
:103c300008147401f08532828533831221e1121c4d
:103c4000a77534007404122386d0f0d083d082d0bc
:103c500092d0d0d0e03275c3007420c39afa744e6b
:103c60009bfbeaf5a2ebf5a35392fe22c02175c39c
:103c700001e5a2f521e5a375c300f9e5212420f8ab
:103c8000e9344ef9e8c39af8e99bf9e8f5a2e9f5b9
:103c9000a3d0215392fe22c082c08374fc122370f1
:103ca000e5a8f8c2afe5958532828533835392fe4d
:103cb000f0e596c0e074011223d9d0e0f0e597c09a
:103cc000e074021223d9d0e0f0e8a2e7a2e792afb5
:103cd00074031223d9e4f08532828533831221e103
:103ce0007404122386d083d08222000100000200d7
:103cf0000000bf130000000100000000e9130000f5
:103d00000002000000000114000300032400000072
:103d1000dd130002000404000000e31300000005ae
:103d2000000000003114000000060000000097149d
:103d300000050007260000004914000000080000ec
:103d40000000d31400020009820000002b140007b9
:103d5000000a2a000000d9140007000b2a00000006
:103d6000df140000000c00000000e5140002000d4c
:103d7000220000001f140003000e22020000251480
:103d800000000100000000004314000001010000d9
:103d90000000c714000001020000000037140003f7
:103da0000103840000005514000201040400000017
:103db0004f1400020105040000003d14000101063b
:103dc00002000000ef130005010786000000f51354
:103dd0000005010826000000fb130004020024086f
:103de0000000a31400040201440000007713000245
:103df0000202040000007d130003020322080000f9
:103e00006b13000202042200000071130001030082
:103e10000200000059130001030102000000cd144c
:103e2000000903024244040053130001030302008b
:103e30000000d7130001030402000000c5130002b4
:103e4000030582000000cb130001030602000000fe
:103e5000d11300010307020000004d130002030804
:103e6000820000001d1300080400424408005f1394
:103e70000006040142840000831300060402428409
:103e800000008f130005040342040000891300039f
:103e900004044200000095130004040542080000d9
:103ea000a1130004040642080000b913000104072e
:103eb00002000000651300030408420000009b1389
:103ec0000006040942840000a7130002040a22002d
:103ed0000000ad130002040b82000000b3130002c7
:103ee0000500220000001914000105010200000075
:103ef000a9140001050202000000b5140003050327
:103f000022020000af140005050462000000bb148b
:103f100000000505000000009114000105060800de
:103f20000000611400020600220000005b14000281
:103f30000601220000006d140001060202000000cc
:103f40007314000f06032a4444008514000006047d
:103f5000000000008b14000806054444000079149a
:103f600000030606220200007f1400050607440233
:103f700000000d140005060844020000131400029e
:103f800006098200000007140007060a2a00000044
:103f90006714000307002202000003150006070152
:103fa000260200000f150003070222020000091577
:103fb000000207032200000015150002070422007a
:103fc00000001b1500030705220200002115000355
:103fd0000706220200002715000207072200000042
:103fe0002d1500060708222222003f1500020709ae
:103ff0008200000045150003070a22020000331565
:104000000003070b2208000039150001070c02000d
:1040100000009d140005070d224200004b1500030f
:104020000800220200002f13000108010200000016
:10403000351300000802000000003b1300000803d5
:1040400000000000411300000804000000004713b6
:1040500000010805080000002913000108060200fd
:1040600000002313000109000200000051150004a4
:1040700009010600000057150001090208000000b0
:104080005d1500000903000000006315000000003a
:1040900000000000eb140000000100000000eb1421
:1040a000000600020a000000eb14000200030400f6
:1040b0000000eb140003000424000000eb140005d2
:1040c000000522220200eb1400010006020000009d
:1040d000eb140005000786000000eb14000c00083c
:1040e00044442402eb140002000904000000eb1415
:1040f0000002000a04000000eb140002000b0400a0
:104100000000eb140000000c00000000eb140003a2
:10411000000d84000000eb140002000e04000000fb
:10412000eb140000010000000000eb14000001018e
:1041300000000000eb140000010200000000eb147e
:104140000002010304000000eb14000301048400da
:104150000000eb140000010500000000eb14000259
:10416000010604000000eb14000201070400000037
:10417000eb140001010808000000eb14000202002b
:1041800004000000eb140007020144840000eb145b
:104190000005020244080000eb14000002030000c6
:1041a0000000eb140000020400000000eb14000308
:1041b000030042000000eb14000203013200000083
:1041c000eb140003030242000000eb14000303039e
:1041d00042000000eb140002030482000000eb1414
:1041e0000003030542000000eb1400030306420035
:1041f0000000eb140001030702000000eb140001b3
:10420000030802000000eb14000304004200000059
:10421000eb140003040142000000eb14000304024d
:1042200042000000eb140003040342000000eb1402
:104230000003040442000000eb14000304054200e4
:104240000000eb140003040642000000eb1400021f
:10425000040704000000eb140003040842000000ff
:10426000eb140003040942000000eb140003040aed
:1042700042000000eb140003040b42000000eb14aa
:104280000003050042000000eb14000005010000df
:104290000000eb140002050204000000eb14000013
:1042a000050300000000eb140002050404000000f8
:1042b000eb140001050502000000eb1400000506e8
:1042c00000000000eb140000060000000000eb14ea
:1042d0000002060104000000eb14000206020400c4
:1042e0000000eb140003060324000000eb1400029e
:1042f000060404000000eb1400030605240000007f
:10430000eb140002060604000000eb14000206078e
:1043100004000000eb140002060804000000eb1487
:104320000002060904000000eb140002060a040063
:104330000000eb140002070004000000eb14000270
:10434000070104000000eb14000207020400000053
:10435000eb140002070304000000eb140002070442
:1043600004000000eb140002070504000000eb1439
:104370000002070604000000eb14000407072402f3
:104380000000eb140002070804000000eb14000416
:10439000070924080000eb140003070a840000004a
:1043a000eb140001070b02000000eb140000070ce7
:1043b00000000000eb140002070d04000000eb14e5
:1043c0000000080000000000eb14000008010000dd
:1043d0000000eb140002080204000000eb140000cf
:1043e000080300000000eb140001080408000000ae
:1043f000eb140001080508000000eb14000008069b
:1044000000000000eb140000090000000000eb14a5
:104410000002090104000000eb140002090204007c
:104420000000eb140002090304000000eb14800cf0
:10443000000044442402eb14800100010800000045
:10444000eb148002000222000000eb148002000343
:1044500022000000eb148004000444000000eb1470
:104460008000000500000000eb148002000604003c
:104470000000eb148003010084000000eb148007af
:10448000020022440800eb148006020142240000ce
:10449000eb148003020224000000eb1480100300e0
:1044a000222a4424eb148006030122440000eb146a
:1044b0008002030282000000eb14800203038200ea
:1044c0000000eb148003030442000000eb1480039f
:1044d000040042000000eb148005040142040000c7
:1044e000eb148006040242840000eb1480070403ee
:1044f00042240800eb148004040442080000eb147a
:104500008005040542820000eb148002040682004c
:104510000000eb148003050022080000eb14800368
:10452000050142000000eb14800505026200000056
:10453000eb148001050302000000eb148004050465
:1045400022220000eb14800b0600232a8200eb14c9
:104550008002060122000000eb14800707002622db
:104560000000eb148001070102000000eb1480033f
:10457000070252000000eb1480040900060000004e
:10458000eb1400000000000000000000b6080fd48b
:104590000809e60805f0080902090c1a09072809a4
:1045a0000b3e090e5a090768090474f01223ef74d0
:1045b000f0122370e5c7f5289006a8e0f5c775212d
:1045c0001075220078211226377c1d7d0774021297
:1045d00023d9aa82ab83121e81740212238678210a
:1045e0001226377c007d007a1d7b07121e8774021d
:1045f0001223867521008058852182a882e875f0f3
:1046000075a4faabf09006a31247482474f582eb28
:10461000127489a2e050377f008f82ac82e875f077
:104620003ba4faabf09007131247482cfaeb340086
:10463000fbea241af582eb127489fa741d2cf582b8
:1046400074071274894af00fefc3941040cb052110
:104650009006a2e0f8e521c398409d7521008521d0
:1046600082a882741d28f5827407127489fa853233
:1046700082853383e58228f582e5831274896af0a6
:104680000521e521c3941040d5752100852182ae16
:10469000827f00853282853383e5822ef582e58331
:1046a000126299a3a3a3a3e0f8853282853383e540
:1046b000822ef582e58312748948f52260768f2771
:1046c000e522a2e0505b7523018f24e527782312b1
:1046d000235da823741d2ef5827407127489586017
:1046e0000479018002790074252ef5827407127412
:1046f00089586004e9d2e1f98e238f24740378236a
:1047000012235d852725e5232525fae5243400fbc2
:1047100074a02af58274f73bf583e0fa7b00121649
:104720001d0527e522c313f522e527c3940850048d
:10473000e522708c0521e521c39408500302468cc4
:104740008528c77410024cfb12474c22e02afaa3ba
:10475000e03bfbea2274f61223efe975f03ba4fa82
:10476000abf0121779900713126eb5e5c7ff9006ec
:10477000a8e0f5c790f79e125f17e4c39af521747d
:104780001f9bf52278211226377c007d00121e87a0
:1047900074021223868fc77ccc7d097aa57b061212
:1047a0001a6179087c157d077a007b00121c89e963
:1047b0006408601b75210875220078211226377c59
:1047c000007d007a157b07121e8774021223860271
:1047d0004f9b74f01223ef74fe1223a01226238a3b
:1047e000278b28126aa00592a38582218583221235
:1047f0005f17ea4b60158e828f83a3a3a385822364
:10480000858324c3e09aa3e09b5008790112191113
:1048100002490005929009d012264a7b07059212a0
:104820006a98121e1b74041223868e828f83a3a3a0
:10483000a3a3a38582258583268e828f83e01460bf
:104840004a14606414602c14600d1470030248e66e
:1048500024fe607d0249008523848524850592120b
:10486000264e852182852283059212491d1217cd7d
:104870000248f978251226378523848524850592f8
:1048800012264e12490a1217c180167825122637b1
:10489000852384852485059212264e12490a121713
:1048a000977404122386805f7825122637ee24172a
:1048b000f584ef127773059212264e8523848524a2
:1048c0008512264e12490a12178574061223868015
:1048d00036ee2417f582ef127489f523a3e0f52450
:1048e000e523452470081249171217c78019782349
:1048f00012263712491712179d7402122386800759
:10490000aa27ab28121c41026f5fee2415f582ef37
:104910001277a10592e0f98521828522831263d066
:10492000aa27ab282274f61223ef74fe1223a012da
:104930002623eafeebff8921126a96121e15124ffa
:1049400087242af582e58512748960220592e02485
:10495000fd600c24fc7014740765217011800c74c8
:104960000a65216006740165217003752100e44326
:104970009201f00592f09006a1e0f522ac21eefa4a
:10498000effbe0f91215e79006a1e065226005a9aa
:1049900022121851024f8d74f61223efe9ff8c2179
:1049a0008d22740a1223d9e0fd9006a1e0fe782141
:1049b000122637effc9006a1e0f912159974021245
:1049c00023869006a1e06e6005eef9121851024fa1
:1049d0009b74f21223ef74fe1223a01226238a2561
:1049e0008b26124a77121e159006a1e0ff8584825d
:1049f000858583a38582238583247821122637ee3b
:104a0000fd7c04852382852483124b0f1215997433
:104a1000021223869006a1e06f6005eff91218518b
:104a2000e5842417f8e5853400f98e21888289838e
:104a3000e02521f0a3e03400f074166e7017888230
:104a40008983c3e09416a3e094004009aa25ab260d
:104a500012190b80197900852382852483125f1730
:104a6000121911e40592f0aa25ab26121c418532d9
:104a7000828533830277558c218d22e9fe12608c6a
:104a80007b079006a1e0fa79012274f41223ef74f7
:104a9000fe1223a01226238a238b24124a77121e89
:104aa000150592e0f8740768700feef9ac21ad229d
:104ab000aa23ab2412191d804d740a680592900632
:104ac000a1700fe0ffeefcaa21ab22e0f912159fc6
:104ad000801de0ff7821122637eefd7c0085848260
:104ae000858583a3124b0f121599740212238690a9
:104af00006a1e06f6005eff9121851e40592f0aae3
:104b000023ab24121c4185328285338302685b12f9
:104b10007eb99006a1e0f92274f01223ef74fe1220
:104b200023a012262374fe1223708a278b288a82e0
:104b30008b83a3a3a3a3a3a3a3a3a3858225858378
:104b400026126a96121e15852782852883a3a3e064
:104b500024faf523124f068525848526850592a320
:104b60008532828533830592124ee07e00804b9021
:104b700006a1e0ffe5842402f521e5853400f52255
:104b8000782112263774fe29fd7c03858482858571
:104b900083124b0f12159974021223869006a1e01e
:104ba0006f6005eff9121851852582852683e0f59f
:104bb000212efee584252112776f852582852683a7
:104bc000e0f9eec3952340a78921e523c39521127f
:104bd0004ed1124f1912190b026f5a74f01223efb3
:104be00074fe1223a012262374fe1223708a238bd4
:104bf00024126a8b121e15852382852483a3a3e0c9
:104c000024faf522126088858427858528e52724e3
:104c10002af582e528126a877401f0126f03640195
:104c200070047e0280027e107521008010e06f60ab
:104c300005eff912185174022e2521f521e521c343
:104c40009522505a5392fe9006a1e0ffa82185328a
:104c5000828533831269b4127773eef525782512b5
:104c6000263be5842403fce5853400fd124cdf057a
:104c7000929006a1e0f91215b17401122386e99011
:104c800006a170a9e06f6005eff91218518527821f
:104c9000852883e4f0aa23ab24121c41803e8522a0
:104ca00021e52124fef8e434fff98e21e8c39521a3
:104cb000f8e99400f98532828533835392fe1268b5
:104cc000ee2401f8a3e03400f985278285288305c6
:104cd00092a31263c1aa23ab2412190b026f5a05c7
:104ce00092a3e0faa3e0fb227402122386853282ab
:104cf0008533835392fe12262b74021223867f087b
:104d00000224c774f01223ef74fe1223a01226238c
:104d100074fe1223708a278b28126a8b121e158547
:104d20002782852883a3a3e024fbf521125a9c0542
:104d300092900713125ee8858225858326e5252457
:104d40002af582e526125af57f00800de06e600597
:104d5000eef912185174042fffefc39521505fef45
:104d6000f8853284853385124dee126a87858284f8
:104d700085838505929006a1e0fe752202782212b5
:104d8000263be5252417f523e5263400f524782372
:104d9000122637124eef1215ab7403122386e990d8
:104da00006a170a8e06e6005eef912185185258203
:104db000852683e4f0aa27ab28121c41802da82168
:104dc000853282853383e028f8a3e0126ebe24fe8c
:104dd000f582e934fff583124f2e852582852683df
:104de000a31263c1aa27ab2812190b026f5a0592ae
:104df000e028f582a3e02274f01223ef74fe122360
:104e0000a012262374fe1223708a278b288a828b95
:104e100083a3a3a3a3a3a3a3a3a3858225858326fa
:104e20008a828b83a3a3e024faf521126a96121ecc
:104e300015124f06853282853383124ee07f008043
:104e400012e06e6005eef9121851852582852683e1
:104e5000e02fff852582852683e0f8efc39521505a
:104e60005b8f23e5252523fae5263400fb8a828b18
:104e700083a38582848583859006a1e0fe74fc2847
:104e8000f522782212263bea2405f523eb3400f5bf
:104e9000247823122637124eef1215ab7403122317
:104ea00086e99006a1709ae06e6005eef91218513d
:104eb000127508aa27ab28121c4180128823e5210d
:104ec000c39523124ed1a3a3124f1912190b026fcf
:104ed0005af895e0f9e52528f582e52639f583228b
:104ee000127e0e242af582e81277a17401f0228541
:104ef0008482858583a3a3125ef1faa3e0fb059269
:104f00009006a1e0f9221274f2124f0d228532822e
:104f1000853383e8f0a3e9f022a3124f2e85328275
:104f20008533831274e4124f13aa27ab2822e0249e
:104f300001f8a3e03400f92274f61223ef74fe1294
:104f400023a0122623121851e970047a86801c12bd
:104f50004f87241612776f0592e0a2e040047a8111
:104f60008009121c3bea4b70067a827b01800d059a
:104f700092e0c2e0f01217d97a007b008532828578
:104f800033835392fe800c12608ce584228532823a
:104f900085338312262b74021223867f020224c7d4
:104fa00074f21223ef74fe1223a0122623eafeeb02
:104fb000ff8c258d26121851e970047a8680121212
:104fc000531360047a818009121c3bea4b70067a05
:104fd000827b01803074101223d9e0f8c3941450fe
:104fe00004882280037522148525238526247823ae
:104ff000122637a922eefceffd1217bb7402122312
:10500000867a007b0002774c74f01223ef74fe1254
:1050100023a01226238a278b28ecff121851e9704f
:10502000047a86802512531360047a81801cefa2d3
:10503000e04005c3940450047a80800e121c3b8a21
:10504000258b26ea452670067a827b018034efc3e1
:1050500094165004effe80027e16740a1251a112bb
:10506000264a7b070592126a98121e1b74041223ab
:1050700086eef9ac27ad28aa25ab261217af7a0029
:105080007b00024ced74f21223ef74fe1223a01287
:10509000262374fe1223708a238b24ecfeedff740a
:1050a000121223d9e0f525a3e0f526121851e97074
:1050b000047a86801d12531360047a818014e523dc
:1050c000452470047a80800a121c3b127e6e7006a2
:1050d0007a827b01805d74141223d9e0f8c39412a4
:1050e00050048821800375211274080592f0a3e50d
:1050f00023f0a3e524f09009d012264a7b070592fd
:10510000126a98121e1b7404122386782512263701
:105110008e258f267825122637a921ac23ad24743d
:10512000041223d9125f171217a374041223867a6c
:10513000007b00740212238602774c74f41223ef72
:1051400074fe1223a01226238a22121851e9700439
:105150007a86801a12531360047a818011121c3be4
:105160008a238b24ae23af24ee4f70067a827b0114
:10517000802c74091251a112264a7b070592126aeb
:1051800098121e1b7404122386e5226004790180a4
:10519000027900eefaeffb1217a97a007b00026891
:1051a000520592f0a3e4f0a3f09009d02274f0121b
:1051b00023ef74fe1223a0122623eafeebff8c27b6
:1051c0008d28121851e970047a86801f12531360db
:1051d000047a818016ee4f70047a80800e121c3b98
:1051e0008a258b26ea452670067a827b01805474d4
:1051f000121223d9e0f8c394145004882180037557
:10520000211474060592f0a3eef0a3eff09009d0fc
:1052100012264a7b070592126a98121e1b7404120a
:1052200023868527238528247823122637a921ee73
:10523000fceffdaa25ab261217b574021223867a5d
:10524000007b00024ced74f41223ef74fe1223a0d5
:10525000122623eafeebff121851e970047a8680c9
:105260001a12531360047a818011ee4f70047a8011
:105270008009121c3bea4b70067a827b01802a74fb
:105280000712530eeef0a3eff0858482858583a389
:10529000a3a3eef0a3eff0e5842417f582e58512d1
:1052a0007df812190b7a007b0002685274f4122305
:1052b000ef74fe1223a0122623eafeebff12185110
:1052c000e970047a86801a12531360047a8180117f
:1052d000ee4f70047a808009121c3bea4b70067a0c
:1052e000827b018026740512530ea3a3a882a98392
:1052f000eef0a3eff0888289831263d90592a3e8c8
:10530000f0a3e9f012190b7a007b000268521254e4
:1053100085a32212608c0592e02274f21223ef74ae
:10532000fe1223a01226238a218b22ecfeedff120f
:105330001851e970047a86801212531360047a813e
:105340008009121c3bea4b70067a827b01801d7437
:105350000412530ee521f0a3e522f00592a3a3a3c6
:10536000eef0a3eff012190b7a007b0002774c7479
:10537000f01223ef74fe1223a01226238a278b2813
:105380008c258d26121851e970047a86802e1253ce
:105390001360047a81802574141223d90592e0ffea
:1053a00074026f600974106f60047a80800e121ca2
:1053b0003b8a238b24ea452470067a827b01803461
:1053c00074030592f08f2175220005927821122630
:1053d0003774141223d91254aa121e817402122394
:1053e000861253f785848285858312549112190b96
:1053f0007a007b00024cede5842415f582e58512e8
:1054000077a1eff02274f01223ef74fe1223a012a2
:1054100026238a278b288c258d26121851e97004a3
:105420007a86802e12531360047a818025741412b8
:1054300023d90592e0ff74026f600974106f600455
:105440007a80800e121c3b8a238b24ea4524700646
:105450007a827b01802c8f217522007821122637d9
:1054600074141223d91254aa121e817402122386b4
:105470001253f7740112548512549112190b7a00c9
:105480007b00024ced0592f0858482858583059230
:1054900022a3e527f0a3e528f00592a3a3a3e52521
:1054a000f0a3e526f0aa23ab24221263d0e58424de
:1054b00005fae5853400fb2274f01223ef74fe1226
:1054c00023a012262374fe122370126eaf8c278d38
:1054d0002874141223d9e0fea3e0ff121851e970da
:1054e000047a86802a12531360047a81802174180a
:1054f0001223d90592e0f522c3941140047a8080ea
:105500000e121c3b8a258b26ea452670067a827b82
:10551000018069e5842417f582e585126a87eef03b
:10552000a3eff074020592f0e5842415f582e58579
:10553000126a87e5220592f0f5237524007823127c
:10554000263774181223d91254aa121e817402121b
:1055500023868532828533831263d985848285854b
:1055600083a31263c10592a3a3a3e527f0a3e528b3
:10557000f0aa25ab2612190b7a007b00024ce874c6
:10558000f11223ef74fe1223a012262374fc1223bf
:105590007074021223d9126eb5e5c7f5279006a8dc
:1055a000e0f5c774021223d9127e1d85328485333b
:1055b00085e5820592f0a3e583f085328285338309
:1055c00005921265b5f874021223d912570f05928d
:1055d00090f79de0f525ff741dc39af5268e228e67
:1055e0002180080522efc313ff052190f79ce0fc02
:1055f000e521c39c5044eec39526503e12572170be
:10560000e8efa2e050dfa3a3a3a3a3e0640270d35a
:1056100075230275240078231226371263c58e2362
:10562000e5842523126ebb2402fae93400fb121e26
:105630008174021223860e0e80abee601385848285
:10564000858583a3ef60047402800274031256f808
:10565000e52270030256f08532828533835392fe31
:10566000126f09f8741dc398fa95e0fbc3ea941011
:10567000eb9400a2d265d033407674021223d91283
:10568000570faf258e218006efc313ff0521e521bb
:10569000c39c5042e526603e5392fe12572170eca7
:1056a000efa2e050e3a3a3a3a3a3e0641070d97515
:1056b00023108e2478231226371263c5e584240232
:1056c000fae5853400fb121e8174021223867e10d7
:1056d00074ff2522600e8584828585835392fea304
:1056e00074068009858482858583a374071256f821
:1056f0008527c7740402761ff074012ef80592f016
:10570000088532828533830592126f0d28f02205b9
:10571000921269b43400f5850592a3a3a3a37e0079
:105720002290f7961263dde52175f006a4faabf03e
:10573000e82afae93bfb8a828b83e02274f0122389
:10574000ef74fe1223a012262374f91223708532ff
:1057500082853383ecf0a3edf08a278b28e9fe7570
:1057600022001275088a828b830592a3a3a3a385c6
:10577000822385832474026e600caa23ab24121e3c
:1057800051e960027e0274191223d91263d9741987
:105790001223d91263c174191223d9126995741096
:1057a0000592f074026e60030258308523828524ce
:1057b0008305921263d9e8700374286970567f00dc
:1057c00074191223d9126995740a0592f0e5c7c0bd
:1057d000e074041223d9d0e00592f09006a8e0f519
:1057e000c7127508059290f79ce0f526f582ac8209
:1057f000852782852883127616500302596a8527e9
:1058000082852883a3a3125f17c3ec9ae49b5025db
:105810008c258024740168700374286970047f01ea
:10582000809e740368700374286970047f028090fe
:105830007900025977eaf525e814f52180127402ff
:105840001223d9127e1ae521f0a3e4f015210521d7
:10585000e521c39525400302595b1263d6740512f6
:1058600023d91263c1852182a882e875f006a4fac3
:10587000abf074051223e30592e02af582a3e03b26
:10588000f583ac82ad830592e06f70c2852282aa57
:10589000828532848533850592e02a12597c740210
:1058a0001223e3e5820592f0a3e583127462e024fb
:1058b00004f527126f03f5236009e52765236003cc
:1058c00002595b852723ea12746f400302595be596
:1058d00027f0eaf522e8240108e43400f974021202
:1058e00023d90592126995e80592f0a3e912746232
:1058f00012617b1226378c828d83a3a3a3127e14a0
:105900001223d91274ae121e8174021223868029ca
:10591000e52175f006a4f8a9f074051223d9539275
:10592000fe1265acf8700302583e74016870030201
:10593000583ee86f700302583e0521e521c39526c5
:1059400040cee5266521600302583e74021223d939
:10595000127e1a74fff0a3f002584ee522600b7419
:10596000191223d95392fe12750e74041223d953bf
:1059700092fee0f5c7a9227407024ceaf582a3e083
:105980001277a10592a32274f71223ef74fe12235b
:10599000a0122623124a7d121e150592e0f8740605
:1059a00068600a7408686005740968701ce4125a1b
:1059b000ec7c00124cdf0592e0f91215e79006a18d
:1059c000e06e6005eef912185102696974f2122353
:1059d000ef74fe1223a01226238a258b26ecffedfe
:1059e000feec24010ce43400fd12178b8a848b85b5
:1059f00074101223d91263ccec4d701deff91219fb
:105a0000f5e9fec3941540027e147d00eefceff92b
:105a1000aa84ab85121a0d801aeec3941540027e3b
:105a2000148e217522007821122637121e817402ed
:105a3000122386eef9aa25ab26121791024a6e852b
:105a4000328285338302697274f71223ef74fe1277
:105a500023a01226238a848b85125a8a60237b080e
:105a6000126a98121e15125a8afae4f09006a1e002
:105a7000fef91215a59006a1e06e6005eef9121868
:105a800051aa84ab85121c4180b5125a9c90071311
:105a90001268e92419f582e912748d22125aa022a3
:105aa000125aa4229006a1e075f03ba4f8a9f022b6
:105ab00074f71223ef74fe1223a01226231253133d
:105ac000640b6025e5842419f582e585125af512e8
:105ad0006088740b0592125aecf91215e19006a138
:105ae000e06e6005eef9121851026969f0059290b6
:105af00006a1e0fe221277a174010592f02274f152
:105b00001223ef74fe1223a012262374fc122370ba
:105b100074021223d9126eb589228c27e975f0061a
:105b2000a4f8a9f090f79612728cf5850592a3a3bc
:105b3000a3e0f582a3e0f583858284858385a3e0d5
:105b4000f80592e0f526752100740758f97401b93b
:105b500000028004c333d9fcf525e8131313541f46
:105b6000fe804c05929009d012264a7b08059212bd
:105b70006a98121e1b740412238674012522c0e049
:105b80001268682419126a84d0e0f074021223e3c8
:105b9000059212264ead27ac22791d74021223d92c
:105ba0000592125f1712199b740212238605219029
:105bb00006a2e0f8e521c3984003025c59852182e2
:105bc000a882e875f075a4faabf09006a3125c67a2
:105bd000e5842474f582e585127489a2e050cee84c
:105be0009006a1f090069fe584f0a3e585f0e526f8
:105bf000a2e45031e8125c75f8eb39f9e8241a1286
:105c000074865525601f121c3bea4b604c740212cf
:105c100023e3059212264ead27ac22791b12199b65
:105c20007402122386e526a2e550829006a1e012b6
:105c30005c75faeb39fbea2422f582eb1274895584
:105c4000257003025bad125a8d6003025bad121c1e
:105c50003b127e6e6003025b6374041223868532fe
:105c60008285338302762b125c6b22e02af584a3b3
:105c7000e03bf5852275f03ba4f8a9f0900713e00e
:105c80002efaa3e03400fbea282274f01223ef740a
:105c9000fe1223a012262389218c278d287522002d
:105ca00074121223d9e0fea3e0ff8e828f83e0f509
:105cb00025e5c7f524125f00f52690f79ce0f8e58e
:105cc00026c39840097522018e828f838023e526a2
:105cd0001263e370098524c77a887b018049a9266d
:105ce0001219f5e98e828f83f0c395215007752232
:105cf00007e4f08022a821e0c398f0f8c39525506e
:105d00000488238003852523e523f0ad21fca92603
:105d1000aa27ab28121a0d8524c7e5226005fa7b55
:105d20000480047a007b00024ced74f61223ef74b9
:105d3000fe1223a0122623eaf8ecfaedfb752100ef
:105d4000e5c7fe9006a8e0f5c7e814fd740c122321
:105d5000d91263d990f79ce0fcedc39c400b7521f0
:105d60000188828983e4f0801eed126eda0592e0ec
:105d7000fca2e750047410800274028882898305b3
:105d800092f0ecf9121e5d8ec7e521a2e05005faf3
:105d90007b0480047a007b00024f8d74f01223efa5
:105da00074fe1223a012262374fe12237085328201
:105db000853383ecf0a3edf089257e00125efaf5c1
:105dc0002290f79ce0c395225003025edbe522752a
:105dd000f006a4f8a9f0059290f796125ee8858285
:105de000278583280592a3a3e0fc24fa600a1460a7
:105df0000724fb6003025ed974141223d9e0f52155
:105e0000740c6c7003025ec1852784852885059219
:105e1000a3a3a3e0f582a3e0f583852584aa848566
:105e20008284858385a3a3a3a3e0f8852123ea25a3
:105e300023f523e43400f524e89523e49524c36591
:105e4000d03350057e0d025edc0592a3a3858284cb
:105e5000858385852182a882790074066c882389d0
:105e6000247823701b12263774021223d9125eec99
:105e7000faa3e03400fb121e8174021223868031e3
:105e800012263774021223d9125eec12597caa82b0
:105e9000ab83121e817402122386e5212525c0e002
:105ea000852782852883a3a3a3126f18d0e00592cb
:105eb000f08527828528835392fea3a3e0640c70ab
:105ec0000b853282853383125f1780047a007b0052
:105ed000ac21a9221219ad80050e0e0e7f04852675
:105ee000c7eefaeffb024ce8126f5022125ef12a65
:105ef00022e0fca3e0fd0592e0227f00e5c7f52645
